:100000000C945E000C9486000C9486000C94860080
:100010000C9486000C9486000C9486000C94860048
:100020000C9486000C9486000C9486000C94860038
:100030000C9486000C9486000C9486000C94860028
:100040000C94BA040C9486000C9488040C946204FA
:100050000C9486000C9486000C9486000C94860008
:100060000C9486000C9486000000000024002700F9
:100070002A0000000008000201000003040700003D
:10008000000000000000010204081020408001026E
:1000900004081020010204081020000000002500C0
:1000A00028002B00040404040404040402020202D5
:1000B000020203030303030304059C0911241FBE6A
:1000C000CFEFD8E0DEBFCDBF11E0A0E0B1E0E0E9C6
:1000D000F6E102C005900D92A632B107D9F722E0F1
:1000E000A6E2B1E001C01D92A830B207E1F710E02E
:1000F000CDE5D0E004C02197FE010E94100ACC3566
:10010000D107C9F70E94A5050C943B0B0C94000085
:1001100090E0FC01EE58FF4F2491FC01EA57FF4F9D
:100120003491FC01EC55FF4FE491EE23B9F022230A
:1001300039F02330F1F098F4213009F1223019F12F
:10014000F0E0EE0FFF1FE656FF4FA591B4918FB779
:10015000F894EC9130953E233C938FBF089527305F
:10016000A9F02830C9F0243059F7809180008F7DA4
:1001700003C0809180008F7780938000E1CF84B5A9
:100180008F7784BDDDCF84B58F7DFBCF8091B000AC
:100190008F778093B000D4CF8091B0008F7DF9CF5E
:1001A0008F929F92AF92BF92CF92DF92EF92FF9287
:1001B000CF932091F0013091F10182179307E8F578
:1001C0004B01AA24BB24C82DC52ED62EE72EFF2412
:1001D000BC2DA42F2091F601222361F0829E4001C4
:1001E0001124C92D2C9D60011124BD2D249FF001E7
:1001F0001124AF2FE091FC01E090F701F090F8019D
:100200003091F901E31323C09C01220F331F820FA9
:10021000931F8E0D9F1DE091F901E80FF92FF11D3D
:10022000C083E091FA01E80FF92FF11DB08320910E
:10023000FB01820F911DFC01A083CF91FF90EF90F5
:10024000DF90CF90BF90AF909F908F900895880FD0
:10025000991F880F991F8E0D9F1D472F55276627C1
:100260007727222349F030E0249F7001259FF00C6E
:10027000349FF00C11244F2DE80FF92FF11D40830E
:10028000CACFAF92BF92CF92DF92EF92FF920F93BD
:100290001F93CF93DF936C017B018B01040F151F1C
:1002A000EB015E01AE18BF08C017D10759F0699184
:1002B000D601ED91FC910190F081E02DC6010995E8
:1002C000892B79F7C501DF91CF911F910F91FF9095
:1002D000EF90DF90CF90BF90AF900895FC01538DC9
:1002E000448D252F30E0842F90E0821B930B541710
:1002F00010F0CF96089501970895FC01918D828D9D
:10030000981761F0A28DAE0FBF2FB11D5D968C9135
:10031000928D9F5F9F73928F90E008958FEF9FEF74
:100320000895FC01918D828D981731F0828DE80F30
:10033000F11D858D90E008958FEF9FEF0895FC01EA
:10034000918D228D892F90E0805C9F4F821B9109B7
:100350008F739927089581E591E00E949F0121E024
:10036000892B09F420E0822F089580E090E0892B0A
:1003700029F00E94AB0181110C9400000895FC014A
:10038000A48DA80FB92FB11DA35ABF4F2C91848DF6
:1003900090E001968F739927848FA689B7892C9353
:1003A000A089B1898C91837080648C93938D848DA6
:1003B000981306C00288F389E02D80818F7D8083A9
:1003C0000895EF92FF920F931F93CF93DF93EC0169
:1003D00081E0888F9B8D8C8D98131AC0E889F989EC
:1003E000808185FF15C09FB7F894EE89FF896083EF
:1003F000E889F98980818370806480839FBF81E070
:1004000090E0DF91CF911F910F91FF90EF900895B1
:10041000F62E0B8D10E00F5F1F4F0F731127E02E8C
:100420008C8D8E110CC00FB607FCFACFE889F989C4
:10043000808185FFF5CFCE010E94BF01F1CFEB8D0A
:10044000EC0FFD2FF11DE35AFF4FF0829FB7F89498
:100450000B8FEA89FB8980818062CFCFCF93DF93B6
:10046000EC01888D8823B9F0AA89BB89E889F989CC
:100470008C9185FD03C0808186FD0DC00FB607FC01
:10048000F7CF8C9185FFF2CF808185FFEDCFCE0134
:100490000E94BF01E9CFDF91CF910895CF93DF9301
:1004A00090E0FC01EA57FF4F24918C559F4FFC01CF
:1004B00084918823D1F090E0880F991FFC01E859BE
:1004C000FF4FA591B491FC01E656FF4FC591D49121
:1004D00061110EC09FB7F8948C91E22FE0958E23A6
:1004E0008C932881E223E8839FBFDF91CF91089509
:1004F0008FB7F894EC91E22BEC938FBFF6CF3FB718
:10050000F8948091270190912801A0912901B09140
:100510002A0126B5A89B05C02F3F19F00196A11D01
:10052000B11D3FBFBA2FA92F982F8827BC01CD013D
:10053000620F711D811D911D42E0660F771F881F9C
:10054000991F4A95D1F708950F931F93CF93DF9387
:10055000CDB7DEB729970FB6F894DEBF0FBECDBF7B
:100560008091F7019091F801892B09F47CC00E94D9
:100570007F020091FD011091FE012091FF01309159
:100580000002601771078207930740F46093FD0132
:100590007093FE018093FF01909300020091FD0192
:1005A0001091FE012091FF0130910002601B710B40
:1005B000820B930B6C32714081059105C0F2F89467
:1005C0008091F2019091F3019A838983E091F70180
:1005D000F091F801DF011196808189879091EE01F9
:1005E000E0910102F091020280910302992309F443
:1005F00045C09081982B98879081809589238F831F
:100600008F818C8388E08B8358856F8149853B81FE
:100610002C8189819A81508347FD252F3A9520832B
:10062000262F39F0441F00C000006083000000C086
:10063000F2CF38E04D9160830000019761F7F093AD
:100640000202E093010249873B832C839A838983CA
:1006500078940E947F026093FD017093FE01809365
:10066000FF019093000229960FB6F894DEBF0FBEEB
:10067000CDBFDF91CF911F910F9108959081982B5D
:1006800098879081809589238F838F818E8388E0DE
:100690008D8358856F8149853D812E8189819A811D
:1006A000508347FD252F00C000C0208300C000C03C
:1006B00000C000C000C060830000262F3A9541F0C2
:1006C000441F000000C000C000C000C000C0E8CF50
:1006D00038E04D9100C0608300C0019709F7F093A6
:1006E0000202E093010249873D832E83AFCFAF9290
:1006F000BF92CF92DF92EF92FF920F931F93CF930F
:10070000DF93EC0110915001812F837887FF03C0A4
:1007100081508C6F8F5F90E0FC01EE0FFF1FE80FA0
:10072000F91FE95FFE4F8081C180D12CF12CE12CB3
:10073000FE2CED2CDC2CCC24E82A8281C82AC09225
:100740004C01D0924D01E0924E01F0924F01109277
:100750004B015E01A60EB71E00914B01802F002EAB
:10076000000C990B2091F0013091F1018217930751
:1007700088F48C179D0728F0B701A6018A159B0500
:1007800018F040E050E0BA010E94D0000F5F0093E3
:100790004B01E2CF0E94A4021F5F14306CF410934F
:1007A0005001DF91CF911F910F91FF90EF90DF905B
:1007B000CF90BF90AF90089510925001F2CF282FA4
:1007C0002095253598F4822F880F880F622F681B9B
:1007D0009FEF960F692F70E090E080E0CB017727C4
:1007E0006627322F330F230F622B08952A3A88F49D
:1007F0002555622F660F620F70E090E080E0982F21
:10080000872F762F6627322F330F330F231B21506C
:10081000EBCF2A5A822F880F880F322F381B315086
:10082000622F660F620F70E090E080E0CB017727C7
:100830006627732B08958E3008F08E508770806481
:1008400080937C0080917A00806480937A0080910C
:100850007A0086FDFCCF209178003091790021321A
:1008600083E0380710F020E233E0A4EFB1E00E940B
:10087000ED0920E233E040E050E00E94AC09C901FC
:100880000895CF93DF93809100018F5F873098F4B4
:1008900080930001D0E0C0E08091F0019091F101DF
:1008A000C817D90758F440E050E0BA01CE010E94C1
:1008B000D0002196F1CF10920001ECCFDF91CF91C3
:1008C0000C94A4021F920F920FB60F9211242F9333
:1008D0003F934F935F936F937F938F939F93AF93C8
:1008E000BF93EF93FF9381E591E00E94BF01FF91D9
:1008F000EF91BF91AF919F918F917F916F915F9198
:100900004F913F912F910F900FBE0F901F90189510
:100910001F920F920FB60F9211242F938F939F93D4
:10092000EF93FF93E0916101F09162018081E0918A
:100930006701F091680182FD1BC0908180916A017E
:100940008F5F8F7320916B01821741F0E0916A01F4
:10095000F0E0EF5AFE4F958F80936A01FF91EF917F
:100960009F918F912F910F900FBE0F901F90189510
:100970008081F4CF1F920F920FB60F9211242F9304
:100980003F938F939F93AF93BF9380912B0190914F
:100990002C01A0912D01B0912E013091260123E070
:1009A000230F2D3758F50196A11DB11D2093260167
:1009B00080932B0190932C01A0932D01B0932E01D5
:1009C0008091270190912801A0912901B0912A01DD
:1009D0000196A11DB11D8093270190932801A0933A
:1009E0002901B0932A01BF91AF919F918F913F91BF
:1009F0002F910F900FBE0F901F90189526E8230F90
:100A00000296A11DB11DD2CF109254011092530134
:100A100088EE93E0A0E0B0E08093550190935601FA
:100A2000A0935701B093580187E191E09093520150
:100A30008093510185EC90E090935E0180935D017D
:100A400084EC90E09093600180935F0180EC90E0F3
:100A5000909362018093610181EC90E09093640136
:100A60008093630182EC90E090936601809365012E
:100A700086EC90E0909368018093670110926A0180
:100A800010926B0110926C0110926D011092EF01A7
:100A90001092F6011092FD011092FE011092FF01DA
:100AA0001092000281E08093FC018093F901109282
:100AB000FA0192E09093FB018093EE0184EB90E0C9
:100AC0009093F3018093F2010E94160A9093F8012B
:100AD0008093F701009781F124EBFC0111922A9594
:100AE000E9F78CE390E09093F1018093F00182E0CC
:100AF00090E09093F5018093F4018091EF018823B9
:100B000039F061E082E00E944E0282E00E9488009B
:100B1000E6EAF0E0E491F0E0EE0FFF1FE656FF4F4B
:100B2000859194919093020280930102E8E8F0E0AD
:100B3000E491E093030208951092F3011092F20100
:100B40001092F1011092F001D2CF789484B58260B6
:100B500084BD84B5816084BD85B5826085BD85B561
:100B6000816085BD80916E00816080936E001092DF
:100B7000810080918100826080938100809181005A
:100B800081608093810080918000816080938000EB
:100B90008091B10084608093B1008091B000816049
:100BA0008093B00080917A00846080937A00809175
:100BB0007A00826080937A0080917A0081608093CD
:100BC0007A0080917A00806880937A001092C10048
:100BD000E0916101F091620182E08083E0915D012A
:100BE000F0915E011082E0915F01F09160018FEC65
:100BF000808310926901E0916501F091660186E0C1
:100C00008083E0916301F091640180818061808341
:100C1000E0916301F0916401808188608083E091BC
:100C20006301F0916401808180688083E0916301B9
:100C3000F091640180818F7D808361E082E00E9479
:100C40004E028091F4019091F50197FD07C061E09B
:100C50000E944E028091F4010E94880081E08093FE
:100C6000EF016091F601653629F12091F70130918D
:100C7000F8016150C9F070E08FEF94E60E94FC0922
:100C8000F9014091F2015091F301CF01821B930BC6
:100C90008417950760F44081469FC001479F900DDF
:100CA000112490833196EDCF70E060E0E9CF85E6C6
:100CB0008093F6010E94A402CC24CA94D12C7AE03D
:100CC000472E512CE2E3EE2EF12CF0E06F2EF0E0F7
:100CD0007F2E8FB7F89480902B0190902C01A090DC
:100CE0002D01B0902E018FBF809247019092480154
:100CF000A0924901B0924A018091000181115BC02C
:100D00008FE00E941B044091430150914401609187
:100D100045017091460195018401041B150B260BBA
:100D2000370BB7010E94FC09CB01B0E0A0E0081727
:100D300019072A073B0760F1809243019092440112
:100D4000A0924501B092460110E000E0C0912F0151
:100D5000D09130018091F0019091F10108171907AD
:100D600060F48C2F800F0E94DF03AB01BC01C8012F
:100D70000E94D0000F5F1F4FE9CF0E94A40221966E
:100D8000CF3FD10509F080F4D0933001C0932F01FB
:100D90006114710409F49DCF0E94AB01882309F40A
:100DA00098CF0E94000095CF1092300110922F0131
:100DB0000E944104EDCF813009F054C08FE00E94C1
:100DC0001B04409143015091440160914501709191
:100DD000460195018401041B150B260B370BB70147
:100DE0000E94FC09CB01B0E0A0E0081719072A0710
:100DF0003B0770F28092430190924401A09245011A
:100E0000B0924601912C812C10E000E06091F0013D
:100E10007091F101C0913101D0913201061717078D
:100E200080F4C4010E94FC098C2F860F0E94DF030E
:100E3000AB01BC01C8010E94D0000F5F1F4F93940B
:100E4000E5CF0E94A4022196C11535E0D30728F40E
:100E5000D0933201C09331019BCF10923201109296
:100E60003101A6CF823009F0ACC08FE00E941B0494
:100E70009C018091380190913901B2010E94FC09D6
:100E80007727FB01EE0FFF1FE60FF71FE95FFE4F0D
:100E90004081818190E0B0E0A0E0BA2FA92F982F87
:100EA0008827A42B4281842B8093340190933501B1
:100EB000A0933601B0933701809143019091440192
:100EC000A0914501B0914601B501A401481B590B01
:100ED0006A0B7B0BC901B0E0A0E0481759076A070D
:100EE0007B0708F455CF8092430190924401A09271
:100EF0004501B092460190903301992099F110E09C
:100F000000E0892D8150990BEC018091F0019091C6
:100F1000F10108171907D8F010E000E0C92DD0E062
:100F20008091F0019091F1010817190768F540913F
:100F30003401509135016091360170913701CE0135
:100F4000800F911F0E94D0000D5F1F4FE9CF40E03E
:100F500050E0BA01CE01800F911F0E94D0000D5FBA
:100F60001F4FD3CFD0E0C0E08091F0019091F1010C
:100F7000C817D90788F640E050E0BA01CE010296C2
:100F80000E94D0002396F0CF0E94A40281E0890D38
:100F9000833018F480933301FBCE1092330180919B
:100FA00038019091390101968832910528F4909387
:100FB000390180933801ECCE10923901109238013A
:100FC000F7CE833009F08EC08FE00E941B04409161
:100FD0004301509144016091450170914601950192
:100FE0008401041B150B260B370BB901A801B0E0D7
:100FF000A0E0481759076A077B0708F4C9CE80921A
:10100000430190924401A0924501B0924601909014
:101010003C019920C1F110E000E0292D2150330B53
:10102000E9018091F0019091F1010817190700F191
:1010300010E000E0C92DD0E08091F0019091F10125
:101040000817190790F580913A0190913B01800FA4
:10105000911FB6010E94FC090E94DF03AB01BC0195
:10106000CE01800F911F0E94D0000D5F1F4FE4CF73
:1010700040E050E0BA01CE01800F911F0E94D000E5
:101080000D5F1F4FCECFD0E0C0E08091F001909176
:10109000F101C817D90760F640E050E0BA01CE016F
:1010A00002960E94D0002396F0CF0E94A40281E015
:1010B000890D833018F480933C016ACE10923C0174
:1010C00080913A0190913B0101968233910528F479
:1010D00090933B0180933A015BCE10923B011092BA
:1010E0003A0166CE843009F063C08FE00E941B0491
:1010F0004091430150914401609145017091460136
:1011000095018401041B150B260B370BB901A801AF
:10111000B0E0A0E0481759076A077B0708F438CE0B
:10112000C0913E018C2F837887FF03C081508C6F64
:101130008F5F90E0FC01EE0FFF1FE80FF91FE95FE2
:10114000FE4F8281418190818092430190924401BF
:10115000A0924501B0924601D0913D0150E070E06F
:1011600060E0762F652F542F4427692B482B8D2F55
:101170000D2E000C990B0E94D0000E94A402DF5F8C
:10118000D0933D018D2FDD0F990B2091F00130910F
:10119000F1018217930708F4FBCD10923D01CF5F58
:1011A000C4301CF4C0933E01F3CD10923E0100CE3A
:1011B000853009F05FC08FE00E941B04409143011D
:1011C000509144016091450170914601950184015F
:1011D000041B150B260B370BB901A801B0E0A0E0EA
:1011E000481759076A077B0708F4D2CD809243015C
:1011F00090924401A0924501B0924601C0914001F5
:101200008C2F837061F468E170E090E080E00E94D0
:101210007703CF5FC430FCF4C0934001B9CD8C2F6D
:10122000837887FF03C081508C6F8F5F813029F4F2
:1012300060E170E088E190E0EACF823029F46CE070
:1012400070E088E290E0E3CF833019F768E070E067
:1012500084E390E0DCCF1092400180913F018F5FEA
:1012600080933F018B300CF493CD0E944104109287
:101270003F018ECD863009F08BCD8FE00E941B049C
:1012800040914301509144016091450170914601A4
:1012900095018401041B150B260B370BB901A8011E
:1012A000B0E0A0E0481759076A077B0708F470CD43
:1012B0008092430190924401A0924501B092460170
:1012C000C09142018C2F837887FF03C081508C6FBF
:1012D0008F5F833061F468E170E090E080E00E940D
:1012E0007703CF5FC430CCF4C093420151CD82303C
:1012F00029F460E170E088E190E0F1CF813029F4D9
:101300006CE070E088E290E0EACF8C2F837049F7C0
:1013100068E070E084E390E0E2CF109242018091B7
:1013200041018F5F809341018B300CF431CD0E94DD
:101330004104109241012CCD8091F7019091F80168
:101340000E94B20A8091F4019091F50197FD03C0CB
:1013500060E00C944E020895052E97FB1EF4009455
:101360000E94C30957FD07D00E94CB0907FC03D098
:101370004EF40C94C30950954095309521953F4FFC
:101380004F4F5F4F089590958095709561957F4F71
:101390008F4F9F4F0895A1E21A2EAA1BBB1BFD0180
:1013A0000DC0AA1FBB1FEE1FFF1FA217B307E40744
:1013B000F50720F0A21BB30BE40BF50B661F771F9C
:1013C000881F991F1A9469F760957095809590957C
:1013D0009B01AC01BD01CF010895A29FB001B39F55
:1013E000C001A39F700D811D1124911DB29F700D2E
:1013F000811D1124911D0895AA1BBB1B51E107C03B
:10140000AA1FBB1FA617B70710F0A61BB70B881F94
:10141000991F5A95A9F780959095BC01CD01089523
:10142000EE0FFF1F0590F491E02D09940F931F9389
:10143000CF93DF938230910510F482E090E0E09149
:101440000602F091070230E020E0B0E0A0E0309723
:1014500099F42115310509F44AC0281B390B2430B1
:101460003105D8F58A819B816115710589F1FB01F0
:1014700093838283FE0111C04081518102811381D7
:1014800048175907E0F04817590799F4109761F089
:1014900012960C93129713961C933296CF01DF91FC
:1014A000CF911F910F9108950093060210930702A8
:1014B000F4CF2115310551F04217530738F0A90137
:1014C000DB019A01BD01DF01F801C1CFEF01F9CFC6
:1014D0009093070280930602CDCFFE01E20FF31F27
:1014E000819391932250310939832883D7CF20915A
:1014F000040230910502232B41F420910301309125
:1015000004013093050220930402209101013091DF
:1015100002012115310541F42DB73EB74091050177
:1015200050910601241B350BE0910402F091050255
:10153000E217F307A0F42E1B3F0B2817390778F0AA
:10154000AC014E5F5F4F2417350748F04E0F5F1F09
:101550005093050240930402819391939FCFF0E052
:10156000E0E09CCFCF93DF930097E9F0FC01329746
:1015700013821282A0910602B0910702ED0130E0C1
:1015800020E01097A1F420813181820F931F2091D8
:101590000402309105022817390709F061C0F09361
:1015A0000502E0930402DF91CF910895EA01CE177E
:1015B000DF07E8F54A815B819E0141155105B1F7CE
:1015C000E901FB83EA8349915991C40FD51FEC17B8
:1015D000FD0761F4808191810296840F951FE901D6
:1015E00099838883828193819B838A83F0E0E0E002
:1015F00012968D919C9113970097B9F52D913C917E
:101600001197CD010296820F931F20910402309111
:1016100005022817390739F6309751F5109207025D
:1016200010920602B0930502A0930402BCCFD383AC
:10163000C28340815181840F951FC817D90761F477
:101640004E5F5F4F88819981480F591F51834083B6
:101650008A819B81938382832115310509F0B0CF64
:10166000F0930702E09306029ECFFD01DC01C0CF9C
:1016700013821282D7CF10E0CDE5D0E004C0FE0186
:101680000E94100A2196CE35D107C9F7F894FFCFF2
:1016900006000008028000FF000000FF000000FFBD
:1016A000FF1AB300000000E10141016E012E029F0C
:0616B000017D0191010023
:00000001FF
