:100000000C945C000C9479000C9479000C947900A9
:100010000C9479000C9479000C9479000C9479007C
:100020000C9479000C9479000C9479000C9479006C
:100030000C9479000C9479000C9479000C9479005C
:100040000C9432010C9479000C9479000C94790092
:100050000C9479000C9479000C9479000C9479003C
:100060000C9479000C947900000000080002010053
:100070000003040700000000000000000000000072
:10008000250028002B0000000000240027002A0083
:10009000040404040404040402020202020203032E
:1000A0000303030301020408102040800102040836
:1000B000102001020408102011241FBECFEFD8E049
:1000C000DEBFCDBF14E0A0E0B1E0ECE6F6E002C098
:1000D00005900D92A234B107D9F724E0A2E4B4E070
:1000E00001C01D92A535B207E1F70E947C010C9476
:1000F00034030C94000090E0FC01EC55FF4F249178
:1001000080579F4FFC018491882399F090E0880FDD
:10011000991FFC01EA57FF4FA591B491FC01E458E7
:10012000FF4F859194918FB7F894EC91E22BEC936B
:100130008FBF089590E0FC01E859FF4F2491FC0126
:10014000EC55FF4F3491FC01E057FF4FE491EE2353
:10015000C9F0222339F0233001F1A8F4213019F13C
:10016000223029F1F0E0EE0FFF1FE458FF4FA59178
:10017000B4918FB7F894EC91611126C030953E236D
:100180003C938FBF08952730A9F02830C9F0243060
:1001900049F7809180008F7D03C0809180008F7728
:1001A00080938000DFCF84B58F7784BDDBCF84B5AB
:1001B0008F7DFBCF8091B0008F778093B000D2CF3E
:1001C0008091B0008F7DF9CF3E2BDACF3FB7F89406
:1001D0008091430490914404A0914504B091460459
:1001E00026B5A89B05C02F3F19F00196A11DB11D92
:1001F0003FBFBA2FA92F982F8827BC01CD01620FCE
:10020000711D811D911D42E0660F771F881F991F88
:100210004A95D1F70895EF92FF920F931F93CF93D2
:10022000DF9392E0E92E91E0F92ED0E0C0E0082FB4
:10023000880F110BB8010C2E02C0759567950A94B2
:10024000E2F76170F70181917F010E949A00219687
:10025000C530D10579F7DF91CF911F910F91FF90B4
:10026000EF9008951F920F920FB60F9211242F93C3
:100270003F938F939F93AF93BF9380914704909147
:100280004804A0914904B0914A043091420423E00B
:10029000230F2D3758F50196A11DB11D209342045F
:1002A0008093470490934804A0934904B0934A0470
:1002B0008091430490914404A0914504B091460478
:1002C0000196A11DB11D8093430490934404A09313
:1002D0004504B0934604BF91AF919F918F913F9198
:1002E0002F910F900FBE0F901F90189526E8230FA7
:1002F0000296A11DB11DD2CF789484B5826084BDD1
:1003000084B5816084BD85B5826085BD85B5816019
:1003100085BD80916E00816080936E001092810097
:100320008091810082608093810080918100816052
:100330008093810080918000816080938000809113
:10034000B10084608093B1008091B000816080939F
:10035000B00080917A00846080937A0080917A0066
:10036000826080937A0080917A00816080937A0025
:1003700080917A00806880937A001092C10082E0B8
:100380000E947B0083E00E947B0084E00E947B004F
:1003900085E00E947B0086E00E947B0006E311E07E
:1003A000CEE2D1E089910E947B000C171D07D1F7A6
:1003B00041E4342E50E2452E53E0552E612C712C31
:1003C000D5E088248394912C70E0A72E70E0B72E9E
:1003D00030927C0080917A00806480937A008091D2
:1003E0007A0086FDFCCF209178003091790021328F
:1003F00083E0380710F020E233E0A4EFB1E00E9480
:100400002503A30192010E94E4023093500420933B
:100410004F048FB7F894409147045091480460917D
:10042000490470914A048FBF809151049091520405
:10043000A0915304B0915404481B590B6A0B7B0BD9
:1004400080914F0490915004B0E0A0E0841795078C
:10045000A607B70708F069C040910001509101015B
:100460004F5F5F4F509301014093000180914C0416
:1004700090914D04FC01EE0FFF1FE80FF91FE95F9B
:10048000FE4F60812181022E000C330B260F311D9F
:1004900067FD3A954217530748F120914B042F5FAF
:1004A00020934B044281042E000C550B2417150693
:1004B00054F010924B0401968D30910588F590937D
:1004C0004D0480934C0480914C0490914D04FC01A8
:1004D000EE0FFF1FE80FF91FE95FFE4F8081082E26
:1004E000000C990B90930101809300012FB7F894B1
:1004F0008091470490914804A0914904B0914A0426
:100500002FBF8093510490935204A0935304B0934F
:100510005404A114B10409F45BCF0E94000058CF29
:1005200010924D0410924C04CECF8FEF0E940B011D
:10053000C0914E048091000190910101D89FF0017B
:10054000D99FF00D1124EA5CFE4FEC0FF11DE08005
:100550008EE2C82E81E0D82E10E000E00E2C000CB8
:10056000FF08B701002E02C0759567950A94E2F75F
:100570006170F60181916F010E949A000F5F1F4F19
:100580000830110571F7C4010C2E01C0880F0A94C0
:10059000EAF780950E940B010E94E6006B017C0146
:1005A0000E94E6006C197D098E099F09683E734020
:1005B00081059105A8F3CF5FC53018F4C0934E04B0
:1005C000A8CF10924E04A5CF052E97FB1EF40094E1
:1005D0000E94FB0257FD07D00E94030307FC03D0D3
:1005E0004EF40C94FB0250954095309521953F4F69
:1005F0004F4F5F4F089590958095709561957F4F0F
:100600008F4F9F4F0895A1E21A2EAA1BBB1BFD011D
:100610000DC0AA1FBB1FEE1FFF1FA217B307E407E1
:10062000F50720F0A21BB30BE40BF50B661F771F39
:10063000881F991F1A9469F7609570958095909519
:100640009B01AC01BD01CF010895A29FB001B39FF2
:10065000C001A39F700D811D1124911DB29F700DCB
:0C066000811D1124911D0895F894FFCF16
:10066C006700020304050600020302052807060AB8
:10067C000D080A15080A1D100A2D290A56050A5BD1
:10068C00060A61060A6702286904286D2F280708E4
:10069C00090A0B0C0D0E00000000FF00000000000A
:1006AC00FF0000000000FF0000000000FF00000041
:1006BC000000FF0000000000FFFF00FF00FF00FF34
:1006CC0000FF00FF00FF00FF00FF00FF00FF00FF26
:1006DC0000FF00FF00FF0001010101FF0202020206
:1006EC00FF04040404FF08080808FF10101010FF92
:1006FC0020202020FF40404040FF80808080FF80F1
:10070C00808080FF40404040FF20202020FF1010C0
:10071C001010FF08080808FF04040404FF0202027A
:10072C0002FF01010101FF01010101FF03030303AA
:10073C00FF07070707FF0F0F0F0FFF1F1F1F1FFFDD
:10074C003F3F3F3FFF7F7F7F7FFFFFFFFFFFFFFEAE
:10075C00FEFEFEFFFCFCFCFCFFF8F8F8F8FFF0F0E6
:10076C00F0F0FFE0E0E0E0FFC0C0C0C0FF808080A0
:10077C0080FF00000000FF000000000001000000EE
:10078C0000030000000007000000000F0000000044
:10079C001F000000003F000000007F00000000FF71
:1007AC0000000000FF01000000FF03000000FF0735
:1007BC00000000FF0F000000FF1F000000FF3F00C3
:1007CC000000FF7F000000FFFF000000FFFF0100A2
:1007DC0000FFFF030000FFFF070000FFFF0F0000FA
:1007EC00FFFF1F0000FFFF3F0000FFFF7F0000FF27
:1007FC00FFFF0000FFFFFF0100FFFFFF0300FFFFF3
:10080C00FF0700FFFFFF0F00FFFFFF1F00FFFFFFB1
:10081C003F00FFFFFF7F00FFFFFFFF00FFFFFFFF19
:10082C0001FFFFFFFF03FFFFFFFF07FFFFFFFF0FAE
:10083C00FFFFFFFF1FFFFFFFFF3FFFFFFFFF7FFFDC
:10084C00FFFFFFFF00000000FF000000FF000000A2
:10085C00FF000000FF000000FF000000000000008F
:10086C000000FF00000000FFFF000000FFFFFF0082
:10087C0000FFFFFFFF00FFFFFFFFFF000000000075
:10088C0000000000FF000000FFFF0000FFFFFF0062
:10089C00FFFFFFFFFFFFFFFFFFAAAAAAAAFF555504
:1008AC005555FF33CC33CCFF66666666FFCC33CC34
:1008BC00330099999999FFFF000000000000000097
:1008CC0000FF000000000000000000FF000000001E
:1008DC000000000000FF000000000000000000FF0E
:1008EC00FF000000FF00000000FFFF000000FF0001
:1008FC00000000FFFF000000FF00000000FFFF00F1
:10090C000000FF00000000FFFFFF0000FFFF0000E1
:10091C0000FFFFFF0000FFFF000000FFFFFF0000D3
:10092C00FFFF000000FFFFFF0000FFFF000000FFC3
:10093C00FFFFFF00FFFFFF0000FFFFFFFF00FFFFB7
:10094C00FF0000FFFFFFFF00FFFFFF0000FFFFFFA6
:10095C00FF00FFFFFF0000FFFFFFFFFFFFFFFFFF98
:10096C0000FFFFFFFFFFFFFFFFFF00FFFFFFFFFF89
:10097C00FFFFFFFF00FFFFFFFFFFFFFFFFFF000078
:10098C00000000FF000000FF000000FF000000FF5F
:10099C00000000FF0000000000000000000000004C
:0209AC00000049
:00000001FF
